{
  "contractName": "etherduel",
  "abi": [
    {
      "inputs": [],
      "payable": false,
      "stateMutability": "nonpayable",
      "type": "constructor"
    },
    {
      "constant": false,
      "inputs": [],
      "name": "createCharacter",
      "outputs": [],
      "payable": false,
      "stateMutability": "nonpayable",
      "type": "function"
    },
    {
      "constant": true,
      "inputs": [],
      "name": "getCharacter",
      "outputs": [
        {
          "name": "_level",
          "type": "uint256"
        },
        {
          "name": "_health",
          "type": "uint256"
        },
        {
          "name": "_attack",
          "type": "uint256"
        },
        {
          "name": "_strength",
          "type": "uint256"
        },
        {
          "name": "_defence",
          "type": "uint256"
        },
        {
          "name": "_unassignedPoints",
          "type": "uint256"
        },
        {
          "name": "_helmetid",
          "type": "uint256"
        },
        {
          "name": "_bodyid",
          "type": "uint256"
        },
        {
          "name": "_legsid",
          "type": "uint256"
        },
        {
          "name": "_hashid",
          "type": "uint256"
        }
      ],
      "payable": false,
      "stateMutability": "view",
      "type": "function"
    },
    {
      "constant": false,
      "inputs": [
        {
          "name": "_health",
          "type": "uint256"
        },
        {
          "name": "_attack",
          "type": "uint256"
        },
        {
          "name": "_strength",
          "type": "uint256"
        },
        {
          "name": "_defence",
          "type": "uint256"
        },
        {
          "name": "_unassignedPoints",
          "type": "uint256"
        }
      ],
      "name": "updateCharacter",
      "outputs": [],
      "payable": false,
      "stateMutability": "nonpayable",
      "type": "function"
    },
    {
      "constant": false,
      "inputs": [],
      "name": "enterDuelQueue",
      "outputs": [],
      "payable": false,
      "stateMutability": "nonpayable",
      "type": "function"
    }
  ],
  "bytecode": "0x6060604052341561000f57600080fd5b6000600260006001815260200190815260200160002060006101000a81548173ffffffffffffffffffffffffffffffffffffffff021916908373ffffffffffffffffffffffffffffffffffffffff1602179055506000600260006002815260200190815260200160002060006101000a81548173ffffffffffffffffffffffffffffffffffffffff021916908373ffffffffffffffffffffffffffffffffffffffff1602179055506000600260006003815260200190815260200160002060006101000a81548173ffffffffffffffffffffffffffffffffffffffff021916908373ffffffffffffffffffffffffffffffffffffffff160217905550608060405190810160405280600081526020016000815260200160008152602001600115158152506001600061044c815260200190815260200160002060008201518160000155602082015181600101556040820151816002015560608201518160030160006101000a81548160ff021916908315150217905550905050608060405190810160405280600081526020016000815260200160018152602001600115158152506001600061044d815260200190815260200160002060008201518160000155602082015181600101556040820151816002015560608201518160030160006101000a81548160ff021916908315150217905550905050608060405190810160405280600081526020016000815260200160008152602001600115158152506001600061044e815260200190815260200160002060008201518160000155602082015181600101556040820151816002015560608201518160030160006101000a81548160ff021916908315150217905550905050608060405190810160405280600081526020016000815260200160018152602001600115158152506001600061044f815260200190815260200160002060008201518160000155602082015181600101556040820151816002015560608201518160030160006101000a81548160ff0219169083151502179055509050506080604051908101604052806000815260200160008152602001600081526020016001151581525060016000610834815260200190815260200160002060008201518160000155602082015181600101556040820151816002015560608201518160030160006101000a81548160ff0219169083151502179055509050506080604051908101604052806000815260200160008152602001600181526020016001151581525060016000610835815260200190815260200160002060008201518160000155602082015181600101556040820151816002015560608201518160030160006101000a81548160ff0219169083151502179055509050506080604051908101604052806000815260200160008152602001600081526020016001151581525060016000610836815260200190815260200160002060008201518160000155602082015181600101556040820151816002015560608201518160030160006101000a81548160ff0219169083151502179055509050506080604051908101604052806000815260200160008152602001600181526020016001151581525060016000610837815260200190815260200160002060008201518160000155602082015181600101556040820151816002015560608201518160030160006101000a81548160ff0219169083151502179055509050506080604051908101604052806000815260200160008152602001600081526020016001151581525060016000610c1c815260200190815260200160002060008201518160000155602082015181600101556040820151816002015560608201518160030160006101000a81548160ff0219169083151502179055509050506080604051908101604052806000815260200160008152602001600181526020016001151581525060016000610c1d815260200190815260200160002060008201518160000155602082015181600101556040820151816002015560608201518160030160006101000a81548160ff0219169083151502179055509050506080604051908101604052806000815260200160008152602001600081526020016001151581525060016000610c1e815260200190815260200160002060008201518160000155602082015181600101556040820151816002015560608201518160030160006101000a81548160ff0219169083151502179055509050506080604051908101604052806000815260200160008152602001600181526020016001151581525060016000610c1f815260200190815260200160002060008201518160000155602082015181600101556040820151816002015560608201518160030160006101000a81548160ff021916908315150217905550905050611062806107026000396000f300606060405260043610610062576000357c0100000000000000000000000000000000000000000000000000000000900463ffffffff1680631e8237df146100675780635537f059146100cf5780636ec0fae4146100e4578063f47ff93d1461012b575b600080fd5b341561007257600080fd5b61007a610140565b604051808b81526020018a81526020018981526020018881526020018781526020018681526020018581526020018481526020018381526020018281526020019a505050505050505050505060405180910390f35b34156100da57600080fd5b6100e2610283565b005b34156100ef57600080fd5b6101296004808035906020019091908035906020019091908035906020019091908035906020019091908035906020019091905050610297565b005b341561013657600080fd5b61013e610383565b005b600080600080600080600080600080610157610fd2565b6000803373ffffffffffffffffffffffffffffffffffffffff1673ffffffffffffffffffffffffffffffffffffffff168152602001908152602001600020610180604051908101604052908160008201548152602001600182015481526020016002820154815260200160038201548152602001600482015481526020016005820154815260200160068201548152602001600782015481526020016008820154815260200160098201548152602001600a8201548152602001600b820160009054906101000a900460ff161515151581525050905080600001519a50806020015199508060400151985080606001519750806080015196508060a0015195508060e0015194508061010001519350806101200151925080610140015191505090919293949596979899565b61028c33610580565b6102953361084b565b565b60008060003373ffffffffffffffffffffffffffffffffffffffff1673ffffffffffffffffffffffffffffffffffffffff1681526020019081526020016000209050600082141561037b578060050154816004015482600301548360020154846001015401010101828486888a01010101141561037a5780600101548610158015610326575080600201548510155b8015610336575080600301548410155b8015610346575080600401548310155b15610379578581600101819055508481600201819055508381600301819055508281600401819055508181600501819055505b5b5b505050505050565b6000806000803373ffffffffffffffffffffffffffffffffffffffff1673ffffffffffffffffffffffffffffffffffffffff1681526020019081526020016000206000015491503373ffffffffffffffffffffffffffffffffffffffff166002600084815260200190815260200160002060009054906101000a900473ffffffffffffffffffffffffffffffffffffffff1673ffffffffffffffffffffffffffffffffffffffff1614156104365761057c565b60006002600084815260200190815260200160002060009054906101000a900473ffffffffffffffffffffffffffffffffffffffff1673ffffffffffffffffffffffffffffffffffffffff1614156104df57336002600084815260200190815260200160002060006101000a81548173ffffffffffffffffffffffffffffffffffffffff021916908373ffffffffffffffffffffffffffffffffffffffff16021790555061057b565b61051c6002600084815260200190815260200160002060009054906101000a900473ffffffffffffffffffffffffffffffffffffffff1633610a5b565b905061052781610d9e565b60006002600084815260200190815260200160002060006101000a81548173ffffffffffffffffffffffffffffffffffffffff021916908373ffffffffffffffffffffffffffffffffffffffff1602179055505b5b5050565b60016000808373ffffffffffffffffffffffffffffffffffffffff1673ffffffffffffffffffffffffffffffffffffffff16815260200190815260200160002060000181905550600a6000808373ffffffffffffffffffffffffffffffffffffffff1673ffffffffffffffffffffffffffffffffffffffff1681526020019081526020016000206001018190555060016000808373ffffffffffffffffffffffffffffffffffffffff1673ffffffffffffffffffffffffffffffffffffffff1681526020019081526020016000206002018190555060016000808373ffffffffffffffffffffffffffffffffffffffff1673ffffffffffffffffffffffffffffffffffffffff1681526020019081526020016000206003018190555060016000808373ffffffffffffffffffffffffffffffffffffffff1673ffffffffffffffffffffffffffffffffffffffff1681526020019081526020016000206004018190555060036000808373ffffffffffffffffffffffffffffffffffffffff1673ffffffffffffffffffffffffffffffffffffffff16815260200190815260200160002060050181905550426000808373ffffffffffffffffffffffffffffffffffffffff1673ffffffffffffffffffffffffffffffffffffffff1681526020019081526020016000206006018190555061044c6000808373ffffffffffffffffffffffffffffffffffffffff1673ffffffffffffffffffffffffffffffffffffffff168152602001908152602001600020600701819055506108346000808373ffffffffffffffffffffffffffffffffffffffff1673ffffffffffffffffffffffffffffffffffffffff16815260200190815260200160002060080181905550610c1c6000808373ffffffffffffffffffffffffffffffffffffffff1673ffffffffffffffffffffffffffffffffffffffff1681526020019081526020016000206009018190555050565b6000806000806103e860016003610860610e4b565b81151561086957fe5b0601029350606460016000808873ffffffffffffffffffffffffffffffffffffffff1673ffffffffffffffffffffffffffffffffffffffff168152602001908152602001600020600001546108bc610e4b565b8115156108c557fe5b060102925060056108d4610e4b565b8115156108dd57fe5b06915081838501019050806000808773ffffffffffffffffffffffffffffffffffffffff1673ffffffffffffffffffffffffffffffffffffffff168152602001908152602001600020600a01819055506001600082815260200190815260200160002060030160009054906101000a900460ff1615610a54576103e88414156109ab57806000808773ffffffffffffffffffffffffffffffffffffffff1673ffffffffffffffffffffffffffffffffffffffff16815260200190815260200160002060070181905550610a53565b6107d0841415610a0057806000808773ffffffffffffffffffffffffffffffffffffffff1673ffffffffffffffffffffffffffffffffffffffff16815260200190815260200160002060080181905550610a52565b610bb8841415610a5157806000808773ffffffffffffffffffffffffffffffffffffffff1673ffffffffffffffffffffffffffffffffffffffff168152602001908152602001600020600901819055505b5b5b5b5050505050565b600080600080600080610a6c610e4b565b9450610a7785610e6f565b935060058460ff161015610a9057879250869150610a97565b8692508791505b600090505b600a8160ff161015610ceb57610ab185610e6f565b9350600560036000808673ffffffffffffffffffffffffffffffffffffffff1673ffffffffffffffffffffffffffffffffffffffff16815260200190815260200160002060020154811515610b0257fe5b048560ff16011115610bc357610b188383610e94565b6000808473ffffffffffffffffffffffffffffffffffffffff1673ffffffffffffffffffffffffffffffffffffffff1681526020019081526020016000206001016000828254039250508190555060008060008473ffffffffffffffffffffffffffffffffffffffff1673ffffffffffffffffffffffffffffffffffffffff16815260200190815260200160002060010154111515610bc257610bba82610580565b829550610ceb565b5b610bcc85610e6f565b9350600560036000808573ffffffffffffffffffffffffffffffffffffffff1673ffffffffffffffffffffffffffffffffffffffff16815260200190815260200160002060020154811515610c1d57fe5b048560ff16011115610cde57610c338284610e94565b6000808573ffffffffffffffffffffffffffffffffffffffff1673ffffffffffffffffffffffffffffffffffffffff1681526020019081526020016000206001016000828254039250508190555060008060008573ffffffffffffffffffffffffffffffffffffffff1673ffffffffffffffffffffffffffffffffffffffff16815260200190815260200160002060010154111515610cdd57610cd583610580565b819550610ceb565b5b8080600101915050610a9c565b6000808873ffffffffffffffffffffffffffffffffffffffff1673ffffffffffffffffffffffffffffffffffffffff168152602001908152602001600020600101546000808a73ffffffffffffffffffffffffffffffffffffffff1673ffffffffffffffffffffffffffffffffffffffff168152602001908152602001600020600101541115610d8657610d7e87610580565b879550610d93565b610d8f88610580565b8695505b505050505092915050565b6000808273ffffffffffffffffffffffffffffffffffffffff1673ffffffffffffffffffffffffffffffffffffffff1681526020019081526020016000206000016000815480929190600101919050555060036000808373ffffffffffffffffffffffffffffffffffffffff1673ffffffffffffffffffffffffffffffffffffffff16815260200190815260200160002060050160008282540192505081905550610e488161084b565b50565b60006001426040518082815260200191505060405180910390206001900401905090565b6000600a82811515610e7d57fe5b069050600a82811515610e8c57fe5b049150919050565b6000806000808473ffffffffffffffffffffffffffffffffffffffff1673ffffffffffffffffffffffffffffffffffffffff168152602001908152602001600020600401546000808673ffffffffffffffffffffffffffffffffffffffff1673ffffffffffffffffffffffffffffffffffffffff16815260200190815260200160002060030154039050600081111515610f315760019050610f35565b8090505b806000808573ffffffffffffffffffffffffffffffffffffffff1673ffffffffffffffffffffffffffffffffffffffff168152602001908152602001600020600101541015610fc7576000808473ffffffffffffffffffffffffffffffffffffffff1673ffffffffffffffffffffffffffffffffffffffff168152602001908152602001600020600101549150610fcb565b8091505b5092915050565b61018060405190810160405280600081526020016000815260200160008152602001600081526020016000815260200160008152602001600081526020016000815260200160008152602001600081526020016000815260200160001515815250905600a165627a7a72305820be8829c3333e22e486a629ff72d9a8f62ed66c76394b09ba983227a71d09268a0029",
  "source": "pragma solidity ^0.4.18;\r\n\r\ncontract etherduel {\r\n\r\n    struct character {\r\n        uint level;\r\n        uint health;\r\n        uint attack;\r\n        uint strength;\r\n        uint defence; \r\n        uint unassignedPoints;\r\n        uint timestamp;\r\n        uint helmet_id;\r\n        uint body_id;\r\n        uint legs_id;\r\n        uint hashid;\r\n        bool dueling;\r\n    }\r\n\r\n    struct item {\r\n        uint attack;\r\n        uint strength;\r\n        uint defence;\r\n        bool exists;\r\n    }\r\n\r\n   \r\n   mapping(address => character) characters;\r\n   mapping(uint => item) items;\r\n   mapping(uint => address) duelQueue;\r\n   \r\n   function etherduel() public {\r\n        //Init duel queue\r\n        duelQueue[1] = 0;\r\n        duelQueue[2] = 0;\r\n        duelQueue[3] = 0;\r\n\r\n        // 1 2 3 4\r\n        // | | |_|___item code\r\n        // | |_______level requirement\r\n        // |_________item type (0=helmet,1=body,2=legs)\r\n\r\n        //Helmets\r\n        items[1100] = item(0,0,0,true);\r\n        items[1101] = item(0,0,1,true);\r\n        items[1102] = item(0,0,0,true);\r\n        items[1103] = item(0,0,1,true);\r\n\r\n        //Bodies\r\n        items[2100] = item(0,0,0,true);\r\n        items[2101] = item(0,0,1,true);\r\n        items[2102] = item(0,0,0,true);\r\n        items[2103] = item(0,0,1,true);\r\n        //Legs\r\n        items[3100] = item(0,0,0,true);\r\n        items[3101] = item(0,0,1,true);\r\n        items[3102] = item(0,0,0,true);\r\n        items[3103] = item(0,0,1,true);\r\n   }\r\n   \r\n   //Create a new character\r\n   function createCharacter() public {\r\n       resetCharacter(msg.sender);\r\n       generateRandomItem(msg.sender);\r\n   }\r\n   \r\n   //Get characters stats\r\n   function getCharacter() \r\n            public \r\n            view \r\n            returns (uint _level, \r\n                     uint _health, \r\n                     uint _attack, \r\n                     uint _strength, \r\n                     uint _defence, \r\n                     uint _unassignedPoints,\r\n                     uint _helmetid,\r\n                     uint _bodyid,\r\n                     uint _legsid,\r\n                     uint _hashid)\r\n    {\r\n\r\n       character memory _character = characters[msg.sender];\r\n       _level = _character.level;\r\n       _health = _character.health;\r\n       _attack = _character.attack;\r\n       _strength = _character.strength;\r\n       _defence = _character.defence;\r\n       _unassignedPoints = _character.unassignedPoints;\r\n       _helmetid = _character.helmet_id;\r\n       _bodyid = _character.body_id;\r\n       _legsid = _character.legs_id;\r\n       _hashid = _character.hashid;\r\n   }\r\n\r\n   //Update character stats\r\n   function updateCharacter(uint _health, uint _attack, uint _strength, uint _defence, uint _unassignedPoints) public {\r\n        character storage _character = characters[msg.sender];\r\n        //validate\r\n        if (_unassignedPoints == 0) {\r\n            if (_health + _attack + _strength + _defence + _unassignedPoints == _character.health + _character.attack + _character.strength + _character.defence + _character.unassignedPoints ) {\r\n                if (_health >= _character.health && _attack >= _character.attack && _strength >= _character.strength && _defence >= _character.defence) {\r\n                    _character.health = _health;\r\n                    _character.attack = _attack;\r\n                    _character.strength = _strength;\r\n                    _character.defence = _defence;\r\n                    _character.unassignedPoints = _unassignedPoints; \r\n                }\r\n            }\r\n        }\r\n   }\r\n   \r\n   // Join duel queue\r\n   function enterDuelQueue() public {\r\n       uint characterLevel = characters[msg.sender].level;\r\n       if (duelQueue[characterLevel] == msg.sender) {\r\n           // Already in the queue\r\n           return;\r\n       } else if (duelQueue[characterLevel] == 0) {\r\n           // Enter the queue\r\n           duelQueue[characterLevel] = msg.sender;\r\n       }else {\r\n           // Theres someone else in queue - fight!\r\n           address winner = duel(duelQueue[characterLevel], msg.sender);\r\n           levelUp(winner);\r\n           duelQueue[characterLevel] = 0;\r\n       }\r\n   }\r\n   \r\n   // Duel two characters\r\n   function duel(address p1, address p2) private returns(address winner) {\r\n\r\n        uint rnd = genRandom();\r\n        uint8 rd = shift10(rnd);\r\n        address first;\r\n        address second;\r\n        if (rd < 5) {\r\n            //p1 goes first\r\n            first = p1;\r\n            second = p2;\r\n        } else {\r\n            //p2 goes first\r\n            first = p2;\r\n            second = p1;\r\n        }\r\n       //max ten rounds\r\n       for (uint8 i = 0; i < 10; i++) {\r\n            rd = shift10(rnd);\r\n            // Chance to hit\r\n            if (rd + (characters[first].attack / 3) > 5) {\r\n                // Do damage\r\n                characters[second].health -= calcDamage(first, second);\r\n                if (characters[second].health <= 0) {\r\n                    resetCharacter(second);\r\n                    winner = first;\r\n                    break;\r\n                }\r\n            }\r\n            rd = shift10(rnd);\r\n            // Chance to hit\r\n            if (rd + (characters[second].attack / 3) > 5) {\r\n                // Do damage\r\n                characters[first].health -= calcDamage(second, first);\r\n                if (characters[first].health <= 0) {\r\n                    resetCharacter(first);\r\n                    winner = second;\r\n                    break;\r\n                }\r\n            }   \r\n       }\r\n\r\n       //Nobody was killed - winner has most health remaining\r\n       // Unfair - what if even?\r\n       if (characters[p1].health > characters[p2].health) {\r\n           resetCharacter(p2);\r\n           winner = p1;\r\n       } else {\r\n           resetCharacter(p1);\r\n           winner = p2;\r\n       }\r\n\r\n   }\r\n\r\n   function calcDamage(address attacker, address defender) private view returns (uint finalDamage) {\r\n       uint damage = (characters[attacker].strength - characters[defender].defence);\r\n       if (damage <= 0) {\r\n           damage = 1;\r\n       } else {\r\n           damage = damage;\r\n       }\r\n\r\n       if (characters[defender].health < damage) {\r\n           //Cant bring health lower than 0\r\n           finalDamage = characters[defender].health;\r\n       } else {\r\n           finalDamage = damage;\r\n       }\r\n   }\r\n\r\n    // Level up a character\r\n   function levelUp(address charAddress) private {\r\n        characters[charAddress].level++;\r\n        characters[charAddress].unassignedPoints += 3;\r\n        generateRandomItem(charAddress);\r\n   }\r\n\r\n    // Reset a character to base stats\r\n   function resetCharacter(address _address) private {\r\n       characters[_address].level = 1;\r\n       characters[_address].health = 10;\r\n       characters[_address].attack = 1;\r\n       characters[_address].strength = 1;\r\n       characters[_address].defence = 1;\r\n       characters[_address].unassignedPoints = 3;\r\n       characters[_address].timestamp = block.timestamp;\r\n       characters[_address].helmet_id = 1100;\r\n       characters[_address].body_id = 2100;\r\n       characters[_address].legs_id = 3100;\r\n   }\r\n\r\n    function generateRandomItem(address adr) private {\r\n        //Chance at getting an item after leveling up/creation\r\n        //generate a random item\r\n        uint itemType = ((genRandom() % 3) + 1) * 1000;\r\n        uint itemLevel = ((genRandom() % characters[adr].level) + 1) * 100;\r\n        uint itemId = genRandom() % 5;\r\n        uint itemhash = itemType + itemLevel + itemId;\r\n        characters[adr].hashid = itemhash;\r\n        // Check if it maps to an exisiting item\r\n        // TODO - This should add to inventory in future\r\n        if (items[itemhash].exists) {\r\n                  if (itemType == 1000) {\r\n                      characters[adr].helmet_id = itemhash;\r\n            } else if (itemType == 2000) {\r\n                      characters[adr].body_id = itemhash;\r\n            } else if (itemType == 3000) {\r\n                      characters[adr].legs_id = itemhash;\r\n            }\r\n        }\r\n    }\r\n\r\n   // Generate a 'random' number - needs to be improved!\r\n   function genRandom() private view returns (uint randomNumber) {\r\n        randomNumber = uint256(keccak256(block.timestamp)) + 1;\r\n   }\r\n\r\n    //Shift a number by 1 digit (base 10) \r\n   function shift10(uint256 randomNumber) private pure returns (uint8 digit) {\r\n        digit = (uint8) (randomNumber % 10);\r\n        randomNumber = randomNumber / 10;\r\n   }\r\n \r\n}",
  "sourcePath": "C:\\Users\\Brad\\Documents\\GitHub\\nodejs\\ether-duels-truffle\\contracts\\etherduel.sol",
  "compiler": {
    "name": "solc",
    "version": "0.4.19+commit.c4cbbb05.Emscripten.clang"
  },
  "schemaVersion": "1.0.1",
  "updatedAt": "2018-02-11T22:50:21.955Z"
}