{
  "contractName": "etherduel",
  "abi": [
    {
      "inputs": [],
      "payable": false,
      "stateMutability": "nonpayable",
      "type": "constructor"
    },
    {
      "constant": false,
      "inputs": [],
      "name": "createCharacter",
      "outputs": [],
      "payable": false,
      "stateMutability": "nonpayable",
      "type": "function"
    },
    {
      "constant": true,
      "inputs": [],
      "name": "getCharacter",
      "outputs": [
        {
          "name": "_level",
          "type": "uint256"
        },
        {
          "name": "_health",
          "type": "uint256"
        },
        {
          "name": "_attack",
          "type": "uint256"
        },
        {
          "name": "_strength",
          "type": "uint256"
        },
        {
          "name": "_defence",
          "type": "uint256"
        },
        {
          "name": "_unassignedPoints",
          "type": "uint256"
        },
        {
          "name": "_helmetid",
          "type": "uint256"
        },
        {
          "name": "_bodyid",
          "type": "uint256"
        },
        {
          "name": "_legsid",
          "type": "uint256"
        },
        {
          "name": "_weaponid",
          "type": "uint256"
        },
        {
          "name": "_inv0",
          "type": "uint256"
        },
        {
          "name": "_inv1",
          "type": "uint256"
        },
        {
          "name": "_inv2",
          "type": "uint256"
        },
        {
          "name": "_hashid",
          "type": "uint256"
        }
      ],
      "payable": false,
      "stateMutability": "view",
      "type": "function"
    },
    {
      "constant": false,
      "inputs": [
        {
          "name": "_health",
          "type": "uint256"
        },
        {
          "name": "_attack",
          "type": "uint256"
        },
        {
          "name": "_strength",
          "type": "uint256"
        },
        {
          "name": "_defence",
          "type": "uint256"
        },
        {
          "name": "_unassignedPoints",
          "type": "uint256"
        }
      ],
      "name": "updateCharacter",
      "outputs": [],
      "payable": false,
      "stateMutability": "nonpayable",
      "type": "function"
    },
    {
      "constant": false,
      "inputs": [],
      "name": "enterDuelQueue",
      "outputs": [],
      "payable": false,
      "stateMutability": "nonpayable",
      "type": "function"
    }
  ],
  "bytecode": "0x6060604052341561000f57600080fd5b6000600260006001815260200190815260200160002060006101000a81548173ffffffffffffffffffffffffffffffffffffffff021916908373ffffffffffffffffffffffffffffffffffffffff1602179055506000600260006002815260200190815260200160002060006101000a81548173ffffffffffffffffffffffffffffffffffffffff021916908373ffffffffffffffffffffffffffffffffffffffff1602179055506000600260006003815260200190815260200160002060006101000a81548173ffffffffffffffffffffffffffffffffffffffff021916908373ffffffffffffffffffffffffffffffffffffffff160217905550608060405190810160405280600081526020016000815260200160018152602001600115158152506001600061044d815260200190815260200160002060008201518160000155602082015181600101556040820151816002015560608201518160030160006101000a81548160ff021916908315150217905550905050608060405190810160405280600081526020016000815260200160008152602001600115158152506001600061044e815260200190815260200160002060008201518160000155602082015181600101556040820151816002015560608201518160030160006101000a81548160ff021916908315150217905550905050608060405190810160405280600081526020016000815260200160018152602001600115158152506001600061044f815260200190815260200160002060008201518160000155602082015181600101556040820151816002015560608201518160030160006101000a81548160ff0219169083151502179055509050506080604051908101604052806000815260200160008152602001600081526020016001151581525060016000610450815260200190815260200160002060008201518160000155602082015181600101556040820151816002015560608201518160030160006101000a81548160ff0219169083151502179055509050506080604051908101604052806000815260200160008152602001600181526020016001151581525060016000610450815260200190815260200160002060008201518160000155602082015181600101556040820151816002015560608201518160030160006101000a81548160ff0219169083151502179055509050506080604051908101604052806000815260200160008152602001600181526020016001151581525060016000610835815260200190815260200160002060008201518160000155602082015181600101556040820151816002015560608201518160030160006101000a81548160ff0219169083151502179055509050506080604051908101604052806000815260200160008152602001600081526020016001151581525060016000610836815260200190815260200160002060008201518160000155602082015181600101556040820151816002015560608201518160030160006101000a81548160ff0219169083151502179055509050506080604051908101604052806000815260200160008152602001600181526020016001151581525060016000610837815260200190815260200160002060008201518160000155602082015181600101556040820151816002015560608201518160030160006101000a81548160ff0219169083151502179055509050506080604051908101604052806000815260200160008152602001600081526020016001151581525060016000610838815260200190815260200160002060008201518160000155602082015181600101556040820151816002015560608201518160030160006101000a81548160ff0219169083151502179055509050506080604051908101604052806000815260200160008152602001600181526020016001151581525060016000610839815260200190815260200160002060008201518160000155602082015181600101556040820151816002015560608201518160030160006101000a81548160ff0219169083151502179055509050506080604051908101604052806000815260200160008152602001600181526020016001151581525060016000610c1d815260200190815260200160002060008201518160000155602082015181600101556040820151816002015560608201518160030160006101000a81548160ff0219169083151502179055509050506080604051908101604052806000815260200160008152602001600081526020016001151581525060016000610c1e815260200190815260200160002060008201518160000155602082015181600101556040820151816002015560608201518160030160006101000a81548160ff0219169083151502179055509050506080604051908101604052806000815260200160008152602001600181526020016001151581525060016000610c1f815260200190815260200160002060008201518160000155602082015181600101556040820151816002015560608201518160030160006101000a81548160ff0219169083151502179055509050506080604051908101604052806000815260200160008152602001600081526020016001151581525060016000610c20815260200190815260200160002060008201518160000155602082015181600101556040820151816002015560608201518160030160006101000a81548160ff0219169083151502179055509050506080604051908101604052806000815260200160008152602001600181526020016001151581525060016000610c21815260200190815260200160002060008201518160000155602082015181600101556040820151816002015560608201518160030160006101000a81548160ff0219169083151502179055509050506080604051908101604052806000815260200160008152602001600181526020016001151581525060016000611005815260200190815260200160002060008201518160000155602082015181600101556040820151816002015560608201518160030160006101000a81548160ff0219169083151502179055509050506080604051908101604052806000815260200160008152602001600181526020016001151581525060016000611006815260200190815260200160002060008201518160000155602082015181600101556040820151816002015560608201518160030160006101000a81548160ff0219169083151502179055509050506080604051908101604052806000815260200160008152602001600181526020016001151581525060016000611007815260200190815260200160002060008201518160000155602082015181600101556040820151816002015560608201518160030160006101000a81548160ff0219169083151502179055509050506080604051908101604052806000815260200160008152602001600181526020016001151581525060016000611008815260200190815260200160002060008201518160000155602082015181600101556040820151816002015560608201518160030160006101000a81548160ff0219169083151502179055509050506080604051908101604052806000815260200160008152602001600181526020016001151581525060016000611009815260200190815260200160002060008201518160000155602082015181600101556040820151816002015560608201518160030160006101000a81548160ff021916908315150217905550905050608060405190810160405280600081526020016000815260200160018152602001600115158152506001600061100a815260200190815260200160002060008201518160000155602082015181600101556040820151816002015560608201518160030160006101000a81548160ff021916908315150217905550905050608060405190810160405280600081526020016000815260200160018152602001600115158152506001600061100b815260200190815260200160002060008201518160000155602082015181600101556040820151816002015560608201518160030160006101000a81548160ff021916908315150217905550905050608060405190810160405280600081526020016000815260200160018152602001600115158152506001600061100c815260200190815260200160002060008201518160000155602082015181600101556040820151816002015560608201518160030160006101000a81548160ff02191690831515021790555090505061131a80610c6c6000396000f300606060405260043610610062576000357c0100000000000000000000000000000000000000000000000000000000900463ffffffff1680631e8237df146100675780635537f059146100eb5780636ec0fae414610100578063f47ff93d14610147575b600080fd5b341561007257600080fd5b61007a61015c565b604051808f81526020018e81526020018d81526020018c81526020018b81526020018a81526020018981526020018881526020018781526020018681526020018581526020018481526020018381526020018281526020019e50505050505050505050505050505060405180910390f35b34156100f657600080fd5b6100fe610351565b005b341561010b57600080fd5b6101456004808035906020019091908035906020019091908035906020019091908035906020019091908035906020019091905050610365565b005b341561015257600080fd5b61015a610451565b005b60008060008060008060008060008060008060008061017961124e565b6000803373ffffffffffffffffffffffffffffffffffffffff1673ffffffffffffffffffffffffffffffffffffffff1681526020019081526020016000206101c0604051908101604052908160008201548152602001600182015481526020016002820154815260200160038201548152602001600482015481526020016005820154815260200160068201548152602001600782015481526020016008820154815260200160098201548152602001600a8201548152602001600b8201548152602001600c820160009054906101000a900460ff16151515158152602001600d8201600380602002604051908101604052809291908260038015610293576020028201915b81548152602001906001019080831161027f575b505050505081525050905080600001519e5080602001519d5080604001519c5080606001519b5080608001519a508060a0015199508060e001519850806101000151975080610120015196508061014001519550806101a0015160006003811015156102fb57fe5b60200201519450806101a00151600160038110151561031657fe5b60200201519350806101a00151600260038110151561033157fe5b60200201519250806101600151915050909192939495969798999a9b9c9d565b61035a3361069e565b61036333610aaf565b565b60008060003373ffffffffffffffffffffffffffffffffffffffff1673ffffffffffffffffffffffffffffffffffffffff16815260200190815260200160002090506000821415610449578060050154816004015482600301548360020154846001015401010101828486888a01010101141561044857806001015486101580156103f4575080600201548510155b8015610404575080600301548410155b8015610414575080600401548310155b15610447578581600101819055508481600201819055508381600301819055508281600401819055508181600501819055505b5b5b505050505050565b60008060008060003373ffffffffffffffffffffffffffffffffffffffff1673ffffffffffffffffffffffffffffffffffffffff168152602001908152602001600020600501541415156104a45761069a565b6000803373ffffffffffffffffffffffffffffffffffffffff1673ffffffffffffffffffffffffffffffffffffffff1681526020019081526020016000206000015491503373ffffffffffffffffffffffffffffffffffffffff166002600084815260200190815260200160002060009054906101000a900473ffffffffffffffffffffffffffffffffffffffff1673ffffffffffffffffffffffffffffffffffffffff1614156105545761069a565b60006002600084815260200190815260200160002060009054906101000a900473ffffffffffffffffffffffffffffffffffffffff1673ffffffffffffffffffffffffffffffffffffffff1614156105fd57336002600084815260200190815260200160002060006101000a81548173ffffffffffffffffffffffffffffffffffffffff021916908373ffffffffffffffffffffffffffffffffffffffff160217905550610699565b61063a6002600084815260200190815260200160002060009054906101000a900473ffffffffffffffffffffffffffffffffffffffff1633610bcc565b905061064581610f0f565b60006002600084815260200190815260200160002060006101000a81548173ffffffffffffffffffffffffffffffffffffffff021916908373ffffffffffffffffffffffffffffffffffffffff1602179055505b5b5050565b60016000808373ffffffffffffffffffffffffffffffffffffffff1673ffffffffffffffffffffffffffffffffffffffff16815260200190815260200160002060000181905550600a6000808373ffffffffffffffffffffffffffffffffffffffff1673ffffffffffffffffffffffffffffffffffffffff1681526020019081526020016000206001018190555060016000808373ffffffffffffffffffffffffffffffffffffffff1673ffffffffffffffffffffffffffffffffffffffff1681526020019081526020016000206002018190555060016000808373ffffffffffffffffffffffffffffffffffffffff1673ffffffffffffffffffffffffffffffffffffffff1681526020019081526020016000206003018190555060016000808373ffffffffffffffffffffffffffffffffffffffff1673ffffffffffffffffffffffffffffffffffffffff1681526020019081526020016000206004018190555060036000808373ffffffffffffffffffffffffffffffffffffffff1673ffffffffffffffffffffffffffffffffffffffff16815260200190815260200160002060050181905550426000808373ffffffffffffffffffffffffffffffffffffffff1673ffffffffffffffffffffffffffffffffffffffff1681526020019081526020016000206006018190555060008060008373ffffffffffffffffffffffffffffffffffffffff1673ffffffffffffffffffffffffffffffffffffffff1681526020019081526020016000206007018190555060008060008373ffffffffffffffffffffffffffffffffffffffff1673ffffffffffffffffffffffffffffffffffffffff1681526020019081526020016000206008018190555060008060008373ffffffffffffffffffffffffffffffffffffffff1673ffffffffffffffffffffffffffffffffffffffff1681526020019081526020016000206009018190555060008060008373ffffffffffffffffffffffffffffffffffffffff1673ffffffffffffffffffffffffffffffffffffffff168152602001908152602001600020600a018190555060008060008373ffffffffffffffffffffffffffffffffffffffff1673ffffffffffffffffffffffffffffffffffffffff168152602001908152602001600020600d0160006003811015156109fb57fe5b018190555060008060008373ffffffffffffffffffffffffffffffffffffffff1673ffffffffffffffffffffffffffffffffffffffff168152602001908152602001600020600d016001600381101515610a5157fe5b018190555060008060008373ffffffffffffffffffffffffffffffffffffffff1673ffffffffffffffffffffffffffffffffffffffff168152602001908152602001600020600d016002600381101515610aa757fe5b018190555050565b6000806000806103e860016004610ac4610fbc565b811515610acd57fe5b0601029350606460016000808873ffffffffffffffffffffffffffffffffffffffff1673ffffffffffffffffffffffffffffffffffffffff16815260200190815260200160002060000154610b20610fbc565b811515610b2957fe5b06010292506006610b38610fbc565b811515610b4157fe5b06915081838501019050806000808773ffffffffffffffffffffffffffffffffffffffff1673ffffffffffffffffffffffffffffffffffffffff168152602001908152602001600020600b01819055506001600082815260200190815260200160002060030160009054906101000a900460ff1615610bc557610bc48186610fe0565b5b5050505050565b600080600080600080610bdd610fbc565b9450610be8856110eb565b935060058460ff161015610c0157879250869150610c08565b8692508791505b600090505b600a8160ff161015610e5c57610c22856110eb565b9350600560036000808673ffffffffffffffffffffffffffffffffffffffff1673ffffffffffffffffffffffffffffffffffffffff16815260200190815260200160002060020154811515610c7357fe5b048560ff16011115610d3457610c898383611110565b6000808473ffffffffffffffffffffffffffffffffffffffff1673ffffffffffffffffffffffffffffffffffffffff1681526020019081526020016000206001016000828254039250508190555060008060008473ffffffffffffffffffffffffffffffffffffffff1673ffffffffffffffffffffffffffffffffffffffff16815260200190815260200160002060010154111515610d3357610d2b8261069e565b829550610e5c565b5b610d3d856110eb565b9350600560036000808573ffffffffffffffffffffffffffffffffffffffff1673ffffffffffffffffffffffffffffffffffffffff16815260200190815260200160002060020154811515610d8e57fe5b048560ff16011115610e4f57610da48284611110565b6000808573ffffffffffffffffffffffffffffffffffffffff1673ffffffffffffffffffffffffffffffffffffffff1681526020019081526020016000206001016000828254039250508190555060008060008573ffffffffffffffffffffffffffffffffffffffff1673ffffffffffffffffffffffffffffffffffffffff16815260200190815260200160002060010154111515610e4e57610e468361069e565b819550610e5c565b5b8080600101915050610c0d565b6000808873ffffffffffffffffffffffffffffffffffffffff1673ffffffffffffffffffffffffffffffffffffffff168152602001908152602001600020600101546000808a73ffffffffffffffffffffffffffffffffffffffff1673ffffffffffffffffffffffffffffffffffffffff168152602001908152602001600020600101541115610ef757610eef8761069e565b879550610f04565b610f008861069e565b8695505b505050505092915050565b6000808273ffffffffffffffffffffffffffffffffffffffff1673ffffffffffffffffffffffffffffffffffffffff1681526020019081526020016000206000016000815480929190600101919050555060036000808373ffffffffffffffffffffffffffffffffffffffff1673ffffffffffffffffffffffffffffffffffffffff16815260200190815260200160002060050160008282540192505081905550610fb981610aaf565b50565b60006001426040518082815260200191505060405180910390206001900401905090565b60008090505b6000808373ffffffffffffffffffffffffffffffffffffffff1673ffffffffffffffffffffffffffffffffffffffff1681526020019081525060038110156110e65760008060008473ffffffffffffffffffffffffffffffffffffffff1673ffffffffffffffffffffffffffffffffffffffff168152602001908152602001600020600d018260038110151561107857fe5b015414156110d957826000808473ffffffffffffffffffffffffffffffffffffffff1673ffffffffffffffffffffffffffffffffffffffff168152602001908152602001600020600d01826003811015156110cf57fe5b01819055506110e6565b8080600101915050610fe6565b505050565b6000600a828115156110f957fe5b069050600a8281151561110857fe5b049150919050565b6000806000808473ffffffffffffffffffffffffffffffffffffffff1673ffffffffffffffffffffffffffffffffffffffff168152602001908152602001600020600401546000808673ffffffffffffffffffffffffffffffffffffffff1673ffffffffffffffffffffffffffffffffffffffff168152602001908152602001600020600301540390506000811115156111ad57600190506111b1565b8090505b806000808573ffffffffffffffffffffffffffffffffffffffff1673ffffffffffffffffffffffffffffffffffffffff168152602001908152602001600020600101541015611243576000808473ffffffffffffffffffffffffffffffffffffffff1673ffffffffffffffffffffffffffffffffffffffff168152602001908152602001600020600101549150611247565b8091505b5092915050565b610200604051908101604052806000815260200160008152602001600081526020016000815260200160008152602001600081526020016000815260200160008152602001600081526020016000815260200160008152602001600081526020016000151581526020016112c06112c6565b81525090565b6060604051908101604052806003905b60008152602001906001900390816112d657905050905600a165627a7a72305820055496329df390a6076cc84fcf51165baf14f29cd321e0aca7667f3f03fa2f640029",
  "source": "pragma solidity ^0.4.18;\n\ncontract etherduel {\n\n    struct character {\n        uint level;\n        uint health;\n        uint attack;\n        uint strength;\n        uint defence; \n        uint unassignedPoints;\n        uint timestamp;\n        uint helmetId;\n        uint bodyId;\n        uint legsId;\n        uint weaponId;\n        uint hashid;\n        bool dueling;\n\n        uint[3] inventory; //Define as bytes5? \n    }\n\n    struct item {\n        uint attack;\n        uint strength;\n        uint defence;\n        bool exists;\n    }\n\n   \n   mapping(address => character) characters;\n   mapping(uint => item) items;\n   mapping(uint => address) duelQueue;\n   \n   function etherduel() public {\n        //Init duel queue\n        duelQueue[1] = 0;\n        duelQueue[2] = 0;\n        duelQueue[3] = 0;\n\n        // 1 2 3 4\n        // | | |_|___item code\n        // | |_______level requirement\n        // |_________item type (1=helmet,2=body,3=legs,4=weapon)\n        //\n        // Item codes should always be a min of (n * 1000 + 100) where n > 0 ie. 1100\n\n        //Helmets\n        //items[1100] = item(0,0,0,true);\n        items[1101] = item(0,0,1,true);\n        items[1102] = item(0,0,0,true);\n        items[1103] = item(0,0,1,true);\n        items[1104] = item(0,0,0,true);\n        items[1104] = item(0,0,1,true);\n        //Bodies\n        //items[2100] = item(0,0,0,true);\n        items[2101] = item(0,0,1,true);\n        items[2102] = item(0,0,0,true);\n        items[2103] = item(0,0,1,true);\n        items[2104] = item(0,0,0,true);\n        items[2105] = item(0,0,1,true);\n        //Legs\n        //items[3100] = item(0,0,0,true);\n        items[3101] = item(0,0,1,true);\n        items[3102] = item(0,0,0,true);\n        items[3103] = item(0,0,1,true);\n        items[3104] = item(0,0,0,true);\n        items[3105] = item(0,0,1,true);\n        //Weapons\n        //items[4100] = item(0,0,1,true);\n        items[4101] = item(0,0,1,true);\n        items[4102] = item(0,0,1,true);\n        items[4103] = item(0,0,1,true);\n        items[4104] = item(0,0,1,true);\n        items[4105] = item(0,0,1,true);\n        items[4106] = item(0,0,1,true);\n        items[4107] = item(0,0,1,true);\n        items[4108] = item(0,0,1,true);\n   }\n   \n   //Create a new character\n   function createCharacter() public {\n       resetCharacter(msg.sender);\n       generateRandomItem(msg.sender);\n   }\n   \n   //Get characters stats\n   function getCharacter() \n            public \n            view \n            returns (uint _level, \n                     uint _health, \n                     uint _attack, \n                     uint _strength, \n                     uint _defence, \n                     uint _unassignedPoints,\n                     uint _helmetid,\n                     uint _bodyid,\n                     uint _legsid,\n                     uint _weaponid,\n                     uint _inv0,\n                     uint _inv1,\n                     uint _inv2,\n                     uint _hashid)\n    {\n\n       character memory _character = characters[msg.sender];\n       _level = _character.level;\n       _health = _character.health;\n       _attack = _character.attack;\n       _strength = _character.strength;\n       _defence = _character.defence;\n       _unassignedPoints = _character.unassignedPoints;\n       _helmetid = _character.helmetId;\n       _bodyid = _character.bodyId;\n       _legsid = _character.legsId;\n       _weaponid = _character.weaponId;\n       _inv0 = _character.inventory[0];\n       _inv1 = _character.inventory[1];\n       _inv2 = _character.inventory[2];\n       _hashid = _character.hashid;\n   }\n\n   //Update character stats\n   function updateCharacter(uint _health, uint _attack, uint _strength, uint _defence, uint _unassignedPoints) public {\n        character storage _character = characters[msg.sender];\n        //validate\n        if (_unassignedPoints == 0) {\n            if (_health + _attack + _strength + _defence + _unassignedPoints == _character.health + _character.attack + _character.strength + _character.defence + _character.unassignedPoints ) {\n                if (_health >= _character.health && _attack >= _character.attack && _strength >= _character.strength && _defence >= _character.defence) {\n                    _character.health = _health;\n                    _character.attack = _attack;\n                    _character.strength = _strength;\n                    _character.defence = _defence;\n                    _character.unassignedPoints = _unassignedPoints; \n                }\n            }\n        }\n   }\n   \n   // Join duel queue\n   function enterDuelQueue() public {\n\n       if (characters[msg.sender].unassignedPoints != 0 ) {\n           return;\n       }\n\n       uint characterLevel = characters[msg.sender].level;\n       if (duelQueue[characterLevel] == msg.sender) {\n           // Already in the queue\n           return;\n       } else if (duelQueue[characterLevel] == 0) {\n           // Enter the queue\n           duelQueue[characterLevel] = msg.sender;\n       }else {\n           // Theres someone else in queue - fight!\n           address winner = duel(duelQueue[characterLevel], msg.sender);\n           levelUp(winner);\n           duelQueue[characterLevel] = 0;\n       }\n   }\n   \n   // Duel two characters\n   function duel(address p1, address p2) private returns(address winner) {\n\n        uint rnd = genRandom();\n        uint8 rd = shift10(rnd);\n        address first;\n        address second;\n        if (rd < 5) {\n            //p1 goes first\n            first = p1;\n            second = p2;\n        } else {\n            //p2 goes first\n            first = p2;\n            second = p1;\n        }\n       //max ten rounds\n       for (uint8 i = 0; i < 10; i++) {\n            rd = shift10(rnd);\n            // Chance to hit\n            if (rd + (characters[first].attack / 3) > 5) {\n                // Do damage\n                characters[second].health -= calcDamage(first, second);\n                if (characters[second].health <= 0) {\n                    resetCharacter(second);\n                    winner = first;\n                    break;\n                }\n            }\n            rd = shift10(rnd);\n            // Chance to hit\n            if (rd + (characters[second].attack / 3) > 5) {\n                // Do damage\n                characters[first].health -= calcDamage(second, first);\n                if (characters[first].health <= 0) {\n                    resetCharacter(first);\n                    winner = second;\n                    break;\n                }\n            }   \n       }\n\n       //Nobody was killed - winner has most health remaining\n       // Unfair - what if even?\n       if (characters[p1].health > characters[p2].health) {\n           resetCharacter(p2);\n           winner = p1;\n       } else {\n           resetCharacter(p1);\n           winner = p2;\n       }\n\n   }\n\n   function calcDamage(address attacker, address defender) private view returns (uint finalDamage) {\n       uint damage = (characters[attacker].strength - characters[defender].defence);\n       if (damage <= 0) {\n           damage = 1;\n       } else {\n           damage = damage;\n       }\n\n       if (characters[defender].health < damage) {\n           //Cant bring health lower than 0\n           finalDamage = characters[defender].health;\n       } else {\n           finalDamage = damage;\n       }\n   }\n\n    // Level up a character\n   function levelUp(address charAddress) private {\n        characters[charAddress].level++;\n        characters[charAddress].unassignedPoints += 3;\n        generateRandomItem(charAddress);\n   }\n\n    // Reset a character to base stats\n   function resetCharacter(address _address) private {\n       characters[_address].level = 1;\n       characters[_address].health = 10;\n       characters[_address].attack = 1;\n       characters[_address].strength = 1;\n       characters[_address].defence = 1;\n       characters[_address].unassignedPoints = 3;\n       characters[_address].timestamp = block.timestamp;\n       characters[_address].helmetId = 0;\n       characters[_address].bodyId = 0;\n       characters[_address].legsId = 0;\n       characters[_address].weaponId = 0;\n       characters[_address].inventory[0] = 0; //Can this be consolidated into one call?\n       characters[_address].inventory[1] = 0;\n       characters[_address].inventory[2] = 0;\n   }\n\n\n        // 1 2 3 4\n        // | | |_|___item code\n        // | |_______level requirement\n        // |_________item type (1=helmet,2=body,3=legs,4=weapon)\n\n    function generateRandomItem(address adr) private {\n        //Chance at getting an item after leveling up/creation\n        //generate a random item\n        uint itemType = ((genRandom() % 4) + 1) * 1000;\n        uint itemLevel = ((genRandom() % characters[adr].level) + 1) * 100;\n        uint itemId = genRandom() % 6;\n        uint itemhash = itemType + itemLevel + itemId;\n        characters[adr].hashid = itemhash;\n        // Check if it maps to an exisiting item\n        // TODO - This should add to inventory in future\n        if (items[itemhash].exists) {\n            //Add to inventory\n            addToInventory(itemhash, adr);\n\n            //       if (itemType == 1000) {\n            //           characters[adr].helmetId = itemhash;\n            // } else if (itemType == 2000) {\n            //           characters[adr].bodyId = itemhash;\n            // } else if (itemType == 3000) {\n            //           characters[adr].legsId = itemhash;\n            // } else if (itemType == 4000) {\n            //           characters[adr].weaponId = itemhash;\n            // }\n        }\n    }\n\n    // Add an item to the inventory if there is space\n    function addToInventory(uint itemCode, address adr) private {\n        for (uint i = 0; i < characters[adr].inventory.length; i++) {\n            if (characters[adr].inventory[i] == 0) {\n                characters[adr].inventory[i] = itemCode;\n                break;\n            }\n        }\n    }\n\n    // Equip an item from inventory to a character\n    function equipItem(uint itemCode, address adr) private {\n        for (uint i = 0; i < characters[adr].inventory.length; i++) {\n            if (characters[adr].inventory[i] == itemCode) {\n                uint itemType = getItemType(itemCode);\n                uint temp = itemCode;\n                //If the item is a helmet, equip in helmet spot, etc.\n                if (itemType == 1) {\n                    characters[adr].inventory[i] = characters[adr].helmetId;\n                    characters[adr].helmetId = itemCode;\n                } else if (itemType == 2) {\n                    characters[adr].inventory[i] = characters[adr].bodyId;\n                    characters[adr].bodyId = temp;\n                } else if (itemType == 3) { \n                    characters[adr].inventory[i] = characters[adr].legsId;\n                    characters[adr].legsId = temp;\n                } else if (itemType == 4) {\n                    characters[adr].inventory[i] = characters[adr].weaponId;\n                    characters[adr].weaponId = temp;\n                }\n                break;\n            }\n        }\n    }\n\n   // Generate a 'random' number - needs to be improved!\n   function genRandom() private view returns (uint randomNumber) {\n        randomNumber = uint256(keccak256(block.timestamp)) + 1;\n   }\n\n    //Shift a number by 1 digit (base 10) \n   function shift10(uint256 randomNumber) private pure returns (uint8 digit) {\n        digit = (uint8) (randomNumber % 10);\n        randomNumber = randomNumber / 10;\n   }\n\n   // Item codes should always be a min of (n * 1000 + 100) where n > 0 ie. 1100\n   function getItemType(uint itemCode) private returns (uint itemType) {\n        itemType = itemCode / (2**10);\n   }\n\n}",
  "sourcePath": "/Users/ibm/Documents/node/ether-duels/contracts/etherduel.sol",
  "compiler": {
    "name": "solc",
    "version": "0.4.19+commit.c4cbbb05.Emscripten.clang"
  },
  "schemaVersion": "1.0.1",
  "updatedAt": "2018-02-19T16:15:31.983Z"
}